{
  "_format": "hh-sol-artifact-1",
  "contractName": "UmiMeme",
  "sourceName": "contracts/UmiMeme.sol",
  "abi": [
    {
      "inputs": [],
      "stateMutability": "nonpayable",
      "type": "constructor"
    },
    {
      "inputs": [
        {
          "internalType": "address",
          "name": "sender",
          "type": "address"
        },
        {
          "internalType": "uint256",
          "name": "tokenId",
          "type": "uint256"
        },
        {
          "internalType": "address",
          "name": "owner",
          "type": "address"
        }
      ],
      "name": "ERC721IncorrectOwner",
      "type": "error"
    },
    {
      "inputs": [
        {
          "internalType": "address",
          "name": "operator",
          "type": "address"
        },
        {
          "internalType": "uint256",
          "name": "tokenId",
          "type": "uint256"
        }
      ],
      "name": "ERC721InsufficientApproval",
      "type": "error"
    },
    {
      "inputs": [
        {
          "internalType": "address",
          "name": "approver",
          "type": "address"
        }
      ],
      "name": "ERC721InvalidApprover",
      "type": "error"
    },
    {
      "inputs": [
        {
          "internalType": "address",
          "name": "operator",
          "type": "address"
        }
      ],
      "name": "ERC721InvalidOperator",
      "type": "error"
    },
    {
      "inputs": [
        {
          "internalType": "address",
          "name": "owner",
          "type": "address"
        }
      ],
      "name": "ERC721InvalidOwner",
      "type": "error"
    },
    {
      "inputs": [
        {
          "internalType": "address",
          "name": "receiver",
          "type": "address"
        }
      ],
      "name": "ERC721InvalidReceiver",
      "type": "error"
    },
    {
      "inputs": [
        {
          "internalType": "address",
          "name": "sender",
          "type": "address"
        }
      ],
      "name": "ERC721InvalidSender",
      "type": "error"
    },
    {
      "inputs": [
        {
          "internalType": "uint256",
          "name": "tokenId",
          "type": "uint256"
        }
      ],
      "name": "ERC721NonexistentToken",
      "type": "error"
    },
    {
      "inputs": [
        {
          "internalType": "address",
          "name": "owner",
          "type": "address"
        }
      ],
      "name": "OwnableInvalidOwner",
      "type": "error"
    },
    {
      "inputs": [
        {
          "internalType": "address",
          "name": "account",
          "type": "address"
        }
      ],
      "name": "OwnableUnauthorizedAccount",
      "type": "error"
    },
    {
      "anonymous": false,
      "inputs": [
        {
          "indexed": true,
          "internalType": "address",
          "name": "owner",
          "type": "address"
        },
        {
          "indexed": true,
          "internalType": "address",
          "name": "approved",
          "type": "address"
        },
        {
          "indexed": true,
          "internalType": "uint256",
          "name": "tokenId",
          "type": "uint256"
        }
      ],
      "name": "Approval",
      "type": "event"
    },
    {
      "anonymous": false,
      "inputs": [
        {
          "indexed": true,
          "internalType": "address",
          "name": "owner",
          "type": "address"
        },
        {
          "indexed": true,
          "internalType": "address",
          "name": "operator",
          "type": "address"
        },
        {
          "indexed": false,
          "internalType": "bool",
          "name": "approved",
          "type": "bool"
        }
      ],
      "name": "ApprovalForAll",
      "type": "event"
    },
    {
      "anonymous": false,
      "inputs": [
        {
          "indexed": false,
          "internalType": "uint256",
          "name": "_fromTokenId",
          "type": "uint256"
        },
        {
          "indexed": false,
          "internalType": "uint256",
          "name": "_toTokenId",
          "type": "uint256"
        }
      ],
      "name": "BatchMetadataUpdate",
      "type": "event"
    },
    {
      "anonymous": false,
      "inputs": [
        {
          "indexed": true,
          "internalType": "uint256",
          "name": "contestId",
          "type": "uint256"
        },
        {
          "indexed": false,
          "internalType": "uint256",
          "name": "winningMemeId",
          "type": "uint256"
        },
        {
          "indexed": false,
          "internalType": "uint256",
          "name": "totalStake",
          "type": "uint256"
        }
      ],
      "name": "ContestFinalized",
      "type": "event"
    },
    {
      "anonymous": false,
      "inputs": [
        {
          "indexed": true,
          "internalType": "uint256",
          "name": "contestId",
          "type": "uint256"
        },
        {
          "indexed": false,
          "internalType": "uint256",
          "name": "startTime",
          "type": "uint256"
        },
        {
          "indexed": false,
          "internalType": "uint256",
          "name": "endTime",
          "type": "uint256"
        }
      ],
      "name": "ContestStarted",
      "type": "event"
    },
    {
      "anonymous": false,
      "inputs": [
        {
          "indexed": true,
          "internalType": "uint256",
          "name": "tokenId",
          "type": "uint256"
        },
        {
          "indexed": true,
          "internalType": "address",
          "name": "staker",
          "type": "address"
        },
        {
          "indexed": false,
          "internalType": "uint256",
          "name": "amount",
          "type": "uint256"
        }
      ],
      "name": "MemeStaked",
      "type": "event"
    },
    {
      "anonymous": false,
      "inputs": [
        {
          "indexed": true,
          "internalType": "uint256",
          "name": "tokenId",
          "type": "uint256"
        },
        {
          "indexed": true,
          "internalType": "address",
          "name": "creator",
          "type": "address"
        },
        {
          "indexed": false,
          "internalType": "string",
          "name": "ipfsCid",
          "type": "string"
        },
        {
          "indexed": false,
          "internalType": "uint256",
          "name": "contestId",
          "type": "uint256"
        }
      ],
      "name": "MemeSubmitted",
      "type": "event"
    },
    {
      "anonymous": false,
      "inputs": [
        {
          "indexed": false,
          "internalType": "uint256",
          "name": "_tokenId",
          "type": "uint256"
        }
      ],
      "name": "MetadataUpdate",
      "type": "event"
    },
    {
      "anonymous": false,
      "inputs": [
        {
          "indexed": true,
          "internalType": "address",
          "name": "previousOwner",
          "type": "address"
        },
        {
          "indexed": true,
          "internalType": "address",
          "name": "newOwner",
          "type": "address"
        }
      ],
      "name": "OwnershipTransferred",
      "type": "event"
    },
    {
      "anonymous": false,
      "inputs": [
        {
          "indexed": true,
          "internalType": "uint256",
          "name": "contestId",
          "type": "uint256"
        },
        {
          "indexed": false,
          "internalType": "uint256",
          "name": "winningMemeId",
          "type": "uint256"
        },
        {
          "indexed": false,
          "internalType": "uint256",
          "name": "totalRewards",
          "type": "uint256"
        }
      ],
      "name": "RewardsDistributed",
      "type": "event"
    },
    {
      "anonymous": false,
      "inputs": [
        {
          "indexed": true,
          "internalType": "address",
          "name": "from",
          "type": "address"
        },
        {
          "indexed": true,
          "internalType": "address",
          "name": "to",
          "type": "address"
        },
        {
          "indexed": true,
          "internalType": "uint256",
          "name": "tokenId",
          "type": "uint256"
        }
      ],
      "name": "Transfer",
      "type": "event"
    },
    {
      "inputs": [],
      "name": "CONTEST_DURATION",
      "outputs": [
        {
          "internalType": "uint256",
          "name": "",
          "type": "uint256"
        }
      ],
      "stateMutability": "view",
      "type": "function"
    },
    {
      "inputs": [],
      "name": "MIN_STAKE_AMOUNT",
      "outputs": [
        {
          "internalType": "uint256",
          "name": "",
          "type": "uint256"
        }
      ],
      "stateMutability": "view",
      "type": "function"
    },
    {
      "inputs": [],
      "name": "SUBMISSION_FEE",
      "outputs": [
        {
          "internalType": "uint256",
          "name": "",
          "type": "uint256"
        }
      ],
      "stateMutability": "view",
      "type": "function"
    },
    {
      "inputs": [
        {
          "internalType": "address",
          "name": "to",
          "type": "address"
        },
        {
          "internalType": "uint256",
          "name": "tokenId",
          "type": "uint256"
        }
      ],
      "name": "approve",
      "outputs": [],
      "stateMutability": "nonpayable",
      "type": "function"
    },
    {
      "inputs": [
        {
          "internalType": "address",
          "name": "owner",
          "type": "address"
        }
      ],
      "name": "balanceOf",
      "outputs": [
        {
          "internalType": "uint256",
          "name": "",
          "type": "uint256"
        }
      ],
      "stateMutability": "view",
      "type": "function"
    },
    {
      "inputs": [
        {
          "internalType": "uint256",
          "name": "",
          "type": "uint256"
        }
      ],
      "name": "contests",
      "outputs": [
        {
          "internalType": "uint256",
          "name": "contestId",
          "type": "uint256"
        },
        {
          "internalType": "uint256",
          "name": "startTime",
          "type": "uint256"
        },
        {
          "internalType": "uint256",
          "name": "endTime",
          "type": "uint256"
        },
        {
          "internalType": "uint256",
          "name": "totalStake",
          "type": "uint256"
        },
        {
          "internalType": "uint256",
          "name": "winningMemeId",
          "type": "uint256"
        },
        {
          "internalType": "bool",
          "name": "isFinalized",
          "type": "bool"
        }
      ],
      "stateMutability": "view",
      "type": "function"
    },
    {
      "inputs": [],
      "name": "finalizeContest",
      "outputs": [],
      "stateMutability": "nonpayable",
      "type": "function"
    },
    {
      "inputs": [
        {
          "internalType": "uint256",
          "name": "tokenId",
          "type": "uint256"
        }
      ],
      "name": "getApproved",
      "outputs": [
        {
          "internalType": "address",
          "name": "",
          "type": "address"
        }
      ],
      "stateMutability": "view",
      "type": "function"
    },
    {
      "inputs": [],
      "name": "getCurrentContest",
      "outputs": [
        {
          "components": [
            {
              "internalType": "uint256",
              "name": "contestId",
              "type": "uint256"
            },
            {
              "internalType": "uint256",
              "name": "startTime",
              "type": "uint256"
            },
            {
              "internalType": "uint256",
              "name": "endTime",
              "type": "uint256"
            },
            {
              "internalType": "uint256",
              "name": "totalStake",
              "type": "uint256"
            },
            {
              "internalType": "uint256",
              "name": "winningMemeId",
              "type": "uint256"
            },
            {
              "internalType": "bool",
              "name": "isFinalized",
              "type": "bool"
            }
          ],
          "internalType": "struct UmiMeme.Contest",
          "name": "",
          "type": "tuple"
        }
      ],
      "stateMutability": "view",
      "type": "function"
    },
    {
      "inputs": [
        {
          "internalType": "uint256",
          "name": "contestId",
          "type": "uint256"
        }
      ],
      "name": "getMemesByContest",
      "outputs": [
        {
          "internalType": "uint256[]",
          "name": "",
          "type": "uint256[]"
        }
      ],
      "stateMutability": "view",
      "type": "function"
    },
    {
      "inputs": [
        {
          "internalType": "address",
          "name": "user",
          "type": "address"
        }
      ],
      "name": "getUserProfile",
      "outputs": [
        {
          "internalType": "uint256[]",
          "name": "created",
          "type": "uint256[]"
        },
        {
          "internalType": "uint256[]",
          "name": "staked",
          "type": "uint256[]"
        },
        {
          "internalType": "uint256[]",
          "name": "won",
          "type": "uint256[]"
        }
      ],
      "stateMutability": "view",
      "type": "function"
    },
    {
      "inputs": [
        {
          "internalType": "address",
          "name": "owner",
          "type": "address"
        },
        {
          "internalType": "address",
          "name": "operator",
          "type": "address"
        }
      ],
      "name": "isApprovedForAll",
      "outputs": [
        {
          "internalType": "bool",
          "name": "",
          "type": "bool"
        }
      ],
      "stateMutability": "view",
      "type": "function"
    },
    {
      "inputs": [
        {
          "internalType": "uint256",
          "name": "",
          "type": "uint256"
        },
        {
          "internalType": "address",
          "name": "",
          "type": "address"
        }
      ],
      "name": "memeStakes",
      "outputs": [
        {
          "internalType": "uint256",
          "name": "amount",
          "type": "uint256"
        },
        {
          "internalType": "uint256",
          "name": "timestamp",
          "type": "uint256"
        }
      ],
      "stateMutability": "view",
      "type": "function"
    },
    {
      "inputs": [
        {
          "internalType": "uint256",
          "name": "",
          "type": "uint256"
        }
      ],
      "name": "memes",
      "outputs": [
        {
          "internalType": "uint256",
          "name": "tokenId",
          "type": "uint256"
        },
        {
          "internalType": "address",
          "name": "creator",
          "type": "address"
        },
        {
          "internalType": "string",
          "name": "ipfsCid",
          "type": "string"
        },
        {
          "internalType": "uint256",
          "name": "contestId",
          "type": "uint256"
        },
        {
          "internalType": "uint256",
          "name": "totalStake",
          "type": "uint256"
        },
        {
          "internalType": "bool",
          "name": "isWinner",
          "type": "bool"
        },
        {
          "internalType": "uint256",
          "name": "timestamp",
          "type": "uint256"
        }
      ],
      "stateMutability": "view",
      "type": "function"
    },
    {
      "inputs": [],
      "name": "name",
      "outputs": [
        {
          "internalType": "string",
          "name": "",
          "type": "string"
        }
      ],
      "stateMutability": "view",
      "type": "function"
    },
    {
      "inputs": [],
      "name": "owner",
      "outputs": [
        {
          "internalType": "address",
          "name": "",
          "type": "address"
        }
      ],
      "stateMutability": "view",
      "type": "function"
    },
    {
      "inputs": [
        {
          "internalType": "uint256",
          "name": "tokenId",
          "type": "uint256"
        }
      ],
      "name": "ownerOf",
      "outputs": [
        {
          "internalType": "address",
          "name": "",
          "type": "address"
        }
      ],
      "stateMutability": "view",
      "type": "function"
    },
    {
      "inputs": [],
      "name": "renounceOwnership",
      "outputs": [],
      "stateMutability": "nonpayable",
      "type": "function"
    },
    {
      "inputs": [
        {
          "internalType": "address",
          "name": "from",
          "type": "address"
        },
        {
          "internalType": "address",
          "name": "to",
          "type": "address"
        },
        {
          "internalType": "uint256",
          "name": "tokenId",
          "type": "uint256"
        }
      ],
      "name": "safeTransferFrom",
      "outputs": [],
      "stateMutability": "nonpayable",
      "type": "function"
    },
    {
      "inputs": [
        {
          "internalType": "address",
          "name": "from",
          "type": "address"
        },
        {
          "internalType": "address",
          "name": "to",
          "type": "address"
        },
        {
          "internalType": "uint256",
          "name": "tokenId",
          "type": "uint256"
        },
        {
          "internalType": "bytes",
          "name": "data",
          "type": "bytes"
        }
      ],
      "name": "safeTransferFrom",
      "outputs": [],
      "stateMutability": "nonpayable",
      "type": "function"
    },
    {
      "inputs": [
        {
          "internalType": "address",
          "name": "operator",
          "type": "address"
        },
        {
          "internalType": "bool",
          "name": "approved",
          "type": "bool"
        }
      ],
      "name": "setApprovalForAll",
      "outputs": [],
      "stateMutability": "nonpayable",
      "type": "function"
    },
    {
      "inputs": [
        {
          "internalType": "uint256",
          "name": "tokenId",
          "type": "uint256"
        }
      ],
      "name": "stakeMeme",
      "outputs": [],
      "stateMutability": "payable",
      "type": "function"
    },
    {
      "inputs": [
        {
          "internalType": "string",
          "name": "ipfsCid",
          "type": "string"
        }
      ],
      "name": "submitMeme",
      "outputs": [],
      "stateMutability": "payable",
      "type": "function"
    },
    {
      "inputs": [
        {
          "internalType": "bytes4",
          "name": "interfaceId",
          "type": "bytes4"
        }
      ],
      "name": "supportsInterface",
      "outputs": [
        {
          "internalType": "bool",
          "name": "",
          "type": "bool"
        }
      ],
      "stateMutability": "view",
      "type": "function"
    },
    {
      "inputs": [],
      "name": "symbol",
      "outputs": [
        {
          "internalType": "string",
          "name": "",
          "type": "string"
        }
      ],
      "stateMutability": "view",
      "type": "function"
    },
    {
      "inputs": [
        {
          "internalType": "uint256",
          "name": "tokenId",
          "type": "uint256"
        }
      ],
      "name": "tokenURI",
      "outputs": [
        {
          "internalType": "string",
          "name": "",
          "type": "string"
        }
      ],
      "stateMutability": "view",
      "type": "function"
    },
    {
      "inputs": [
        {
          "internalType": "address",
          "name": "from",
          "type": "address"
        },
        {
          "internalType": "address",
          "name": "to",
          "type": "address"
        },
        {
          "internalType": "uint256",
          "name": "tokenId",
          "type": "uint256"
        }
      ],
      "name": "transferFrom",
      "outputs": [],
      "stateMutability": "nonpayable",
      "type": "function"
    },
    {
      "inputs": [
        {
          "internalType": "address",
          "name": "newOwner",
          "type": "address"
        }
      ],
      "name": "transferOwnership",
      "outputs": [],
      "stateMutability": "nonpayable",
      "type": "function"
    },
    {
      "inputs": [
        {
          "internalType": "address",
          "name": "",
          "type": "address"
        },
        {
          "internalType": "uint256",
          "name": "",
          "type": "uint256"
        }
      ],
      "name": "userCreatedMemes",
      "outputs": [
        {
          "internalType": "uint256",
          "name": "",
          "type": "uint256"
        }
      ],
      "stateMutability": "view",
      "type": "function"
    },
    {
      "inputs": [
        {
          "internalType": "address",
          "name": "",
          "type": "address"
        },
        {
          "internalType": "uint256",
          "name": "",
          "type": "uint256"
        }
      ],
      "name": "userStakedMemes",
      "outputs": [
        {
          "internalType": "uint256",
          "name": "",
          "type": "uint256"
        }
      ],
      "stateMutability": "view",
      "type": "function"
    },
    {
      "inputs": [
        {
          "internalType": "address",
          "name": "",
          "type": "address"
        },
        {
          "internalType": "uint256",
          "name": "",
          "type": "uint256"
        }
      ],
      "name": "userWinningMemes",
      "outputs": [
        {
          "internalType": "uint256",
          "name": "",
          "type": "uint256"
        }
      ],
      "stateMutability": "view",
      "type": "function"
    },
    {
      "stateMutability": "payable",
      "type": "receive"
    }
  ],
  "bytecode": "0x02999a01608060405234801561001057600080fd5b50336040518060400160405280600781526020017f556d694d656d65000000000000000000000000000000000000000000000000008152506040518060400160405280600581526020017f554d454d45000000000000000000000000000000000000000000000000000000815250816000908161008d919061055f565b50806001908161009d919061055f565b505050600073ffffffffffffffffffffffffffffffffffffffff168173ffffffffffffffffffffffffffffffffffffffff16036101125760006040517f1e4fbdf70000000000000000000000000000000000000000000000000000000081526004016101099190610672565b60405180910390fd5b6101218161013560201b60201c565b506101306101fb60201b60201c565b610728565b6000600760009054906101000a900473ffffffffffffffffffffffffffffffffffffffff16905081600760006101000a81548173ffffffffffffffffffffffffffffffffffffffff021916908373ffffffffffffffffffffffffffffffffffffffff1602179055508173ffffffffffffffffffffffffffffffffffffffff168173ffffffffffffffffffffffffffffffffffffffff167f8be0079c531659141344cd1fd0a4f28419497f9722a3daafe3b4186f6b6457e060405160405180910390a35050565b6000600954905060016009600082825461021591906106bc565b925050819055506040518060c0016040528082815260200142815260200162093a804261024291906106bc565b8152602001600081526020016000815260200160001515815250600b6000838152602001908152602001600020600082015181600001556020820151816001015560408201518160020155606082015181600301556080820151816004015560a08201518160050160006101000a81548160ff021916908315150217905550905050807f572b817e64aedae20d6839971cd94077fdc319e3f04e746a1bf8217cd4e1e59d4262093a80426102f691906106bc565b6040516103049291906106ff565b60405180910390a250565b600081519050919050565b7f4e487b7100000000000000000000000000000000000000000000000000000000600052604160045260246000fd5b7f4e487b7100000000000000000000000000000000000000000000000000000000600052602260045260246000fd5b6000600282049050600182168061039057607f821691505b6020821081036103a3576103a2610349565b5b50919050565b60008190508160005260206000209050919050565b60006020601f8301049050919050565b600082821b905092915050565b60006008830261040b7fffffffffffffffffffffffffffffffffffffffffffffffffffffffffffffffff826103ce565b61041586836103ce565b95508019841693508086168417925050509392505050565b6000819050919050565b6000819050919050565b600061045c6104576104528461042d565b610437565b61042d565b9050919050565b6000819050919050565b61047683610441565b61048a61048282610463565b8484546103db565b825550505050565b600090565b61049f610492565b6104aa81848461046d565b505050565b5b818110156104ce576104c3600082610497565b6001810190506104b0565b5050565b601f821115610513576104e4816103a9565b6104ed846103be565b810160208510156104fc578190505b610510610508856103be565b8301826104af565b50505b505050565b600082821c905092915050565b600061053660001984600802610518565b1980831691505092915050565b600061054f8383610525565b9150826002028217905092915050565b6105688261030f565b67ffffffffffffffff8111156105815761058061031a565b5b61058b8254610378565b6105968282856104d2565b600060209050601f8311600181146105c957600084156105b7578287015190505b6105c18582610543565b865550610629565b601f1984166105d7866103a9565b60005b828110156105ff578489015182556001820191506020850194506020810190506105da565b8683101561061c5784890151610618601f891682610525565b8355505b6001600288020188555050505b505050505050565b600073ffffffffffffffffffffffffffffffffffffffff82169050919050565b600061065c82610631565b9050919050565b61066c81610651565b82525050565b60006020820190506106876000830184610663565b92915050565b7f4e487b7100000000000000000000000000000000000000000000000000000000600052601160045260246000fd5b60006106c78261042d565b91506106d28361042d565b92508282019050808211156106ea576106e961068d565b5b92915050565b6106f98161042d565b82525050565b600060408201905061071460008301856106f0565b61072160208301846106f0565b9392505050565b6145e2806107376000396000f3fe6080604052600436106101dc5760003560e01c80637c0b3efa116101025780639d7ed73811610095578063c50bd73111610064578063c50bd731146106f5578063c87b56dd14610732578063e985e9c51461076f578063f2fde38b146107ac576101e3565b80639d7ed73814610624578063a22cb46514610666578063b88d4fde1461068f578063bdfcadf1146106b8576101e3565b80638da5cb5b116100d15780638da5cb5b146105645780639077daf21461058f57806395d89b41146105ba578063987ee156146105e5576101e3565b80637c0b3efa146104a25780637d48536d146104e05780637e39cb2b1461050b57806386960f6c14610527576101e3565b8063388f60641161017a5780636352211e116101495780636352211e146103e657806370a0823114610423578063715018a61461046057806372d6625714610477576101e3565b8063388f6064146103215780633d1933a31461036457806342842e0e146103a157806343cd15c5146103ca576101e3565b8063095ea7b3116101b6578063095ea7b31461028d5780631729f9d5146102b657806323b872dd146102cd57806327ed7188146102f6576101e3565b806301ffc9a7146101e857806306fdde0314610225578063081812fc14610250576101e3565b366101e357005b600080fd5b3480156101f457600080fd5b5061020f600480360381019061020a91906130e0565b6107d5565b60405161021c9190613128565b60405180910390f35b34801561023157600080fd5b5061023a6107e7565b60405161024791906131d3565b60405180910390f35b34801561025c57600080fd5b506102776004803603810190610272919061322b565b610879565b6040516102849190613299565b60405180910390f35b34801561029957600080fd5b506102b460048036038101906102af91906132e0565b610895565b005b3480156102c257600080fd5b506102cb6108ab565b005b3480156102d957600080fd5b506102f460048036038101906102ef9190613320565b610b98565b005b34801561030257600080fd5b5061030b610c9a565b6040516103189190613382565b60405180910390f35b34801561032d57600080fd5b506103486004803603810190610343919061322b565b610ca5565b60405161035b979695949392919061339d565b60405180910390f35b34801561037057600080fd5b5061038b6004803603810190610386919061322b565b610d9c565b60405161039891906134d1565b60405180910390f35b3480156103ad57600080fd5b506103c860048036038101906103c39190613320565b610eaa565b005b6103e460048036038101906103df919061322b565b610eca565b005b3480156103f257600080fd5b5061040d6004803603810190610408919061322b565b611234565b60405161041a9190613299565b60405180910390f35b34801561042f57600080fd5b5061044a600480360381019061044591906134f3565b611246565b6040516104579190613382565b60405180910390f35b34801561046c57600080fd5b50610475611300565b005b34801561048357600080fd5b5061048c611314565b6040516104999190613382565b60405180910390f35b3480156104ae57600080fd5b506104c960048036038101906104c49190613520565b61131b565b6040516104d7929190613560565b60405180910390f35b3480156104ec57600080fd5b506104f561134c565b6040516105029190613382565b60405180910390f35b610525600480360381019061052091906136be565b611356565b005b34801561053357600080fd5b5061054e600480360381019061054991906132e0565b611647565b60405161055b9190613382565b60405180910390f35b34801561057057600080fd5b50610579611678565b6040516105869190613299565b60405180910390f35b34801561059b57600080fd5b506105a46116a2565b6040516105b19190613791565b60405180910390f35b3480156105c657600080fd5b506105cf61171c565b6040516105dc91906131d3565b60405180910390f35b3480156105f157600080fd5b5061060c600480360381019061060791906134f3565b6117ae565b60405161061b939291906137ac565b60405180910390f35b34801561063057600080fd5b5061064b6004803603810190610646919061322b565b611973565b60405161065d969594939291906137f8565b60405180910390f35b34801561067257600080fd5b5061068d60048036038101906106889190613885565b6119bc565b005b34801561069b57600080fd5b506106b660048036038101906106b19190613966565b6119d2565b005b3480156106c457600080fd5b506106df60048036038101906106da91906132e0565b6119f7565b6040516106ec9190613382565b60405180910390f35b34801561070157600080fd5b5061071c600480360381019061071791906132e0565b611a28565b6040516107299190613382565b60405180910390f35b34801561073e57600080fd5b506107596004803603810190610754919061322b565b611a59565b60405161076691906131d3565b60405180910390f35b34801561077b57600080fd5b50610796600480360381019061079191906139e9565b611a6b565b6040516107a39190613128565b60405180910390f35b3480156107b857600080fd5b506107d360048036038101906107ce91906134f3565b611aff565b005b60006107e082611b85565b9050919050565b6060600080546107f690613a58565b80601f016020809104026020016040519081016040528092919081815260200182805461082290613a58565b801561086f5780601f106108445761010080835404028352916020019161086f565b820191906000526020600020905b81548152906001019060200180831161085257829003601f168201915b5050505050905090565b600061088482611be6565b5061088e82611c6e565b9050919050565b6108a782826108a2611cab565b611cb3565b5050565b6108b3611cc5565b600060095490506000600b600083815260200190815260200160002090508060050160009054906101000a900460ff1615610923576040517f08c379a000000000000000000000000000000000000000000000000000000000815260040161091a90613ad5565b60405180910390fd5b806002015442101561096a576040517f08c379a000000000000000000000000000000000000000000000000000000000815260040161096190613b41565b60405180910390fd5b6000806000600854905060005b818110156109e85785600a6000838152602001908152602001600020600301541480156109b9575083600a600083815260200190815260200160002060040154115b156109db57600a60008281526020019081526020016000206004015493508092505b8080600101915050610977565b5060008211610a2c576040517f08c379a0000000000000000000000000000000000000000000000000000000008152600401610a2390613bad565b60405180910390fd5b60018460050160006101000a81548160ff0219169083151502179055508184600401819055506001600a600084815260200190815260200160002060050160006101000a81548160ff021916908315150217905550600f6000600a600085815260200190815260200160002060010160009054906101000a900473ffffffffffffffffffffffffffffffffffffffff1673ffffffffffffffffffffffffffffffffffffffff1673ffffffffffffffffffffffffffffffffffffffff1681526020019081526020016000208290806001815401808255809150506001900390600052602060002001600090919091909150556000846003015490506000600a6000858152602001908152602001600020600401549050867f91f85b6ae42b5e9cce5383f0186d038646d0d7be173db52f7dc3debbe1fdeff58584604051610b73929190613560565b60405180910390a2610b83611d4c565b610b8f87858484611e60565b50505050505050565b600073ffffffffffffffffffffffffffffffffffffffff168273ffffffffffffffffffffffffffffffffffffffff1603610c0a5760006040517f64a0ae92000000000000000000000000000000000000000000000000000000008152600401610c019190613299565b60405180910390fd5b6000610c1e8383610c19611cab565b61201e565b90508373ffffffffffffffffffffffffffffffffffffffff168173ffffffffffffffffffffffffffffffffffffffff1614610c94578382826040517f64283d7b000000000000000000000000000000000000000000000000000000008152600401610c8b93929190613bcd565b60405180910390fd5b50505050565b662386f26fc1000081565b600a6020528060005260406000206000915090508060000154908060010160009054906101000a900473ffffffffffffffffffffffffffffffffffffffff1690806002018054610cf490613a58565b80601f0160208091040260200160405190810160405280929190818152602001828054610d2090613a58565b8015610d6d5780601f10610d4257610100808354040283529160200191610d6d565b820191906000526020600020905b815481529060010190602001808311610d5057829003601f168201915b5050505050908060030154908060040154908060050160009054906101000a900460ff16908060060154905087565b6060600080600854905060005b81811015610dea5784600a60008381526020019081526020016000206003015403610ddd578280610dd990613c33565b9350505b8080600101915050610da9565b5060008267ffffffffffffffff811115610e0757610e06613593565b5b604051908082528060200260200182016040528015610e355781602001602082028036833780820191505090505b5090506000805b83811015610e9d5786600a60008381526020019081526020016000206003015403610e905780838381518110610e7557610e74613c7b565b5b6020026020010181815250508180610e8c90613c33565b9250505b8080600101915050610e3c565b5081945050505050919050565b610ec5838383604051806020016040528060008152506119d2565b505050565b662386f26fc10000341015610f14576040517f08c379a0000000000000000000000000000000000000000000000000000000008152600401610f0b90613cf6565b60405180910390fd5b6008548110610f58576040517f08c379a0000000000000000000000000000000000000000000000000000000008152600401610f4f90613d62565b60405180910390fd5b6000600a600083815260200190815260200160002090506000600954905080826003015414610fbc576040517f08c379a0000000000000000000000000000000000000000000000000000000008152600401610fb390613dce565b60405180910390fd5b600b600082815260200190815260200160002060050160009054906101000a900460ff1615611020576040517f08c379a000000000000000000000000000000000000000000000000000000000815260040161101790613e3a565b60405180910390fd5b6000600c600085815260200190815260200160002060003373ffffffffffffffffffffffffffffffffffffffff1673ffffffffffffffffffffffffffffffffffffffff16815260200190815260200160002060000154146110b6576040517f08c379a00000000000000000000000000000000000000000000000000000000081526004016110ad90613ea6565b60405180910390fd5b604051806040016040528034815260200142815250600c600085815260200190815260200160002060003373ffffffffffffffffffffffffffffffffffffffff1673ffffffffffffffffffffffffffffffffffffffff1681526020019081526020016000206000820151816000015560208201518160010155905050348260040160008282546111469190613ec6565b9250508190555034600b600083815260200190815260200160002060030160008282546111739190613ec6565b92505081905550600e60003373ffffffffffffffffffffffffffffffffffffffff1673ffffffffffffffffffffffffffffffffffffffff1681526020019081526020016000208390806001815401808255809150506001900390600052602060002001600090919091909150553373ffffffffffffffffffffffffffffffffffffffff16837fb1ab8ac3ccd14fa662d553bf68b4a9fdb54d65675f636a4c6ec9ddc01734544f346040516112279190613382565b60405180910390a3505050565b600061123f82611be6565b9050919050565b60008073ffffffffffffffffffffffffffffffffffffffff168273ffffffffffffffffffffffffffffffffffffffff16036112b95760006040517f89c62b640000000000000000000000000000000000000000000000000000000081526004016112b09190613299565b60405180910390fd5b600360008373ffffffffffffffffffffffffffffffffffffffff1673ffffffffffffffffffffffffffffffffffffffff168152602001908152602001600020549050919050565b611308611cc5565b6113126000612238565b565b62093a8081565b600c602052816000526040600020602052806000526040600020600091509150508060000154908060010154905082565b6509184e72a00081565b6509184e72a00034101561139f576040517f08c379a000000000000000000000000000000000000000000000000000000000815260040161139690613f46565b60405180910390fd5b60008151116113e3576040517f08c379a00000000000000000000000000000000000000000000000000000000081526004016113da90613fb2565b60405180910390fd5b60006009549050600b600082815260200190815260200160002060050160009054906101000a900460ff161561144e576040517f08c379a00000000000000000000000000000000000000000000000000000000081526004016114459061401e565b60405180910390fd5b600060085490506001600860008282546114689190613ec6565b9250508190555061147933826122fe565b611483818461231c565b6040518060e001604052808281526020013373ffffffffffffffffffffffffffffffffffffffff1681526020018481526020018381526020016000815260200160001515815260200142815250600a60008381526020019081526020016000206000820151816000015560208201518160010160006101000a81548173ffffffffffffffffffffffffffffffffffffffff021916908373ffffffffffffffffffffffffffffffffffffffff160217905550604082015181600201908161154991906141ea565b50606082015181600301556080820151816004015560a08201518160050160006101000a81548160ff02191690831515021790555060c08201518160060155905050600d60003373ffffffffffffffffffffffffffffffffffffffff1673ffffffffffffffffffffffffffffffffffffffff1681526020019081526020016000208190806001815401808255809150506001900390600052602060002001600090919091909150553373ffffffffffffffffffffffffffffffffffffffff16817fd30d2f804919acacf323debaa16212116c21ab6ea228aba6b586964ee486dd7a858560405161163a9291906142bc565b60405180910390a3505050565b600e602052816000526040600020818154811061166357600080fd5b90600052602060002001600091509150505481565b6000600760009054906101000a900473ffffffffffffffffffffffffffffffffffffffff16905090565b6116aa61303c565b600b600060095481526020019081526020016000206040518060c001604052908160008201548152602001600182015481526020016002820154815260200160038201548152602001600482015481526020016005820160009054906101000a900460ff161515151581525050905090565b60606001805461172b90613a58565b80601f016020809104026020016040519081016040528092919081815260200182805461175790613a58565b80156117a45780601f10611779576101008083540402835291602001916117a4565b820191906000526020600020905b81548152906001019060200180831161178757829003601f168201915b5050505050905090565b6060806060600d60008573ffffffffffffffffffffffffffffffffffffffff1673ffffffffffffffffffffffffffffffffffffffff168152602001908152602001600020600e60008673ffffffffffffffffffffffffffffffffffffffff1673ffffffffffffffffffffffffffffffffffffffff168152602001908152602001600020600f60008773ffffffffffffffffffffffffffffffffffffffff1673ffffffffffffffffffffffffffffffffffffffff168152602001908152602001600020828054806020026020016040519081016040528092919081815260200182805480156118bb57602002820191906000526020600020905b8154815260200190600101908083116118a7575b505050505092508180548060200260200160405190810160405280929190818152602001828054801561190d57602002820191906000526020600020905b8154815260200190600101908083116118f9575b505050505091508080548060200260200160405190810160405280929190818152602001828054801561195f57602002820191906000526020600020905b81548152602001906001019080831161194b575b505050505090509250925092509193909250565b600b6020528060005260406000206000915090508060000154908060010154908060020154908060030154908060040154908060050160009054906101000a900460ff16905086565b6119ce6119c7611cab565b8383612378565b5050565b6119dd848484610b98565b6119f16119e8611cab565b858585856124e7565b50505050565b600f6020528160005260406000208181548110611a1357600080fd5b90600052602060002001600091509150505481565b600d6020528160005260406000208181548110611a4457600080fd5b90600052602060002001600091509150505481565b6060611a6482612698565b9050919050565b6000600560008473ffffffffffffffffffffffffffffffffffffffff1673ffffffffffffffffffffffffffffffffffffffff16815260200190815260200160002060008373ffffffffffffffffffffffffffffffffffffffff1673ffffffffffffffffffffffffffffffffffffffff16815260200190815260200160002060009054906101000a900460ff16905092915050565b611b07611cc5565b600073ffffffffffffffffffffffffffffffffffffffff168173ffffffffffffffffffffffffffffffffffffffff1603611b795760006040517f1e4fbdf7000000000000000000000000000000000000000000000000000000008152600401611b709190613299565b60405180910390fd5b611b8281612238565b50565b6000634906490660e01b7bffffffffffffffffffffffffffffffffffffffffffffffffffffffff1916827bffffffffffffffffffffffffffffffffffffffffffffffffffffffff19161480611bdf5750611bde826127ab565b5b9050919050565b600080611bf28361288d565b9050600073ffffffffffffffffffffffffffffffffffffffff168173ffffffffffffffffffffffffffffffffffffffff1603611c6557826040517f7e273289000000000000000000000000000000000000000000000000000000008152600401611c5c9190613382565b60405180910390fd5b80915050919050565b60006004600083815260200190815260200160002060009054906101000a900473ffffffffffffffffffffffffffffffffffffffff169050919050565b600033905090565b611cc083838360016128ca565b505050565b611ccd611cab565b73ffffffffffffffffffffffffffffffffffffffff16611ceb611678565b73ffffffffffffffffffffffffffffffffffffffff1614611d4a57611d0e611cab565b6040517f118cdaa7000000000000000000000000000000000000000000000000000000008152600401611d419190613299565b60405180910390fd5b565b60006009549050600160096000828254611d669190613ec6565b925050819055506040518060c0016040528082815260200142815260200162093a8042611d939190613ec6565b8152602001600081526020016000815260200160001515815250600b6000838152602001908152602001600020600082015181600001556020820151816001015560408201518160020155606082015181600301556080820151816004015560a08201518160050160006101000a81548160ff021916908315150217905550905050807f572b817e64aedae20d6839971cd94077fdc319e3f04e746a1bf8217cd4e1e59d4262093a8042611e479190613ec6565b604051611e55929190613560565b60405180910390a250565b6000600854905060005b81811015611fdc576000611e7d82611234565b90506000600c600088815260200190815260200160002060008373ffffffffffffffffffffffffffffffffffffffff1673ffffffffffffffffffffffffffffffffffffffff168152602001908152602001600020604051806040016040529081600082015481526020016001820154815250509050600081600001511115611fcd57600085878360000151611f1291906142ec565b611f1c919061435d565b905060008373ffffffffffffffffffffffffffffffffffffffff1682604051611f44906143bf565b60006040518083038185875af1925050503d8060008114611f81576040519150601f19603f3d011682016040523d82523d6000602084013e611f86565b606091505b5050905080611fca576040517f08c379a0000000000000000000000000000000000000000000000000000000008152600401611fc190614420565b60405180910390fd5b50505b50508080600101915050611e6a565b50847f6ae8ee960d83517f7fa993ad7a0e16e33d9655a23ff41eefc62bdb289c7a8e5f858560405161200f929190613560565b60405180910390a25050505050565b60008061202a8461288d565b9050600073ffffffffffffffffffffffffffffffffffffffff168373ffffffffffffffffffffffffffffffffffffffff161461206c5761206b818486612a8f565b5b600073ffffffffffffffffffffffffffffffffffffffff168173ffffffffffffffffffffffffffffffffffffffff16146120fd576120ae6000856000806128ca565b6001600360008373ffffffffffffffffffffffffffffffffffffffff1673ffffffffffffffffffffffffffffffffffffffff168152602001908152602001600020600082825403925050819055505b600073ffffffffffffffffffffffffffffffffffffffff168573ffffffffffffffffffffffffffffffffffffffff1614612180576001600360008773ffffffffffffffffffffffffffffffffffffffff1673ffffffffffffffffffffffffffffffffffffffff168152602001908152602001600020600082825401925050819055505b846002600086815260200190815260200160002060006101000a81548173ffffffffffffffffffffffffffffffffffffffff021916908373ffffffffffffffffffffffffffffffffffffffff160217905550838573ffffffffffffffffffffffffffffffffffffffff168273ffffffffffffffffffffffffffffffffffffffff167fddf252ad1be2c89b69c2b068fc378daa952ba7f163c4a11628f55a4df523b3ef60405160405180910390a4809150509392505050565b6000600760009054906101000a900473ffffffffffffffffffffffffffffffffffffffff16905081600760006101000a81548173ffffffffffffffffffffffffffffffffffffffff021916908373ffffffffffffffffffffffffffffffffffffffff1602179055508173ffffffffffffffffffffffffffffffffffffffff168173ffffffffffffffffffffffffffffffffffffffff167f8be0079c531659141344cd1fd0a4f28419497f9722a3daafe3b4186f6b6457e060405160405180910390a35050565b612318828260405180602001604052806000815250612b53565b5050565b8060066000848152602001908152602001600020908161233c91906141ea565b507ff8e1a15aba9398e019f0b49df1a4fde98ee17ae345cb5f6b5e2c27f5033e8ce78260405161236c9190613382565b60405180910390a15050565b600073ffffffffffffffffffffffffffffffffffffffff168273ffffffffffffffffffffffffffffffffffffffff16036123e957816040517f5b08ba180000000000000000000000000000000000000000000000000000000081526004016123e09190613299565b60405180910390fd5b80600560008573ffffffffffffffffffffffffffffffffffffffff1673ffffffffffffffffffffffffffffffffffffffff16815260200190815260200160002060008473ffffffffffffffffffffffffffffffffffffffff1673ffffffffffffffffffffffffffffffffffffffff16815260200190815260200160002060006101000a81548160ff0219169083151502179055508173ffffffffffffffffffffffffffffffffffffffff168373ffffffffffffffffffffffffffffffffffffffff167f17307eab39ab6107e8899845ad3d59bd9653f200f220920489ca2b5937696c31836040516124da9190613128565b60405180910390a3505050565b60008373ffffffffffffffffffffffffffffffffffffffff163b1115612691578273ffffffffffffffffffffffffffffffffffffffff1663150b7a02868685856040518563ffffffff1660e01b81526004016125469493929190614495565b6020604051808303816000875af192505050801561258257506040513d601f19601f8201168201806040525081019061257f91906144f6565b60015b612606573d80600081146125b2576040519150601f19603f3d011682016040523d82523d6000602084013e6125b7565b606091505b5060008151036125fe57836040517f64a0ae920000000000000000000000000000000000000000000000000000000081526004016125f59190613299565b60405180910390fd5b805181602001fd5b63150b7a0260e01b7bffffffffffffffffffffffffffffffffffffffffffffffffffffffff1916817bffffffffffffffffffffffffffffffffffffffffffffffffffffffff19161461268f57836040517f64a0ae920000000000000000000000000000000000000000000000000000000081526004016126869190613299565b60405180910390fd5b505b5050505050565b60606126a382611be6565b5060006006600084815260200190815260200160002080546126c490613a58565b80601f01602080910402602001604051908101604052809291908181526020018280546126f090613a58565b801561273d5780601f106127125761010080835404028352916020019161273d565b820191906000526020600020905b81548152906001019060200180831161272057829003601f168201915b50505050509050600061274e612b77565b905060008151036127635781925050506127a6565b60008251111561279857808260405160200161278092919061455f565b604051602081830303815290604052925050506127a6565b6127a184612b8e565b925050505b919050565b60007f80ac58cd000000000000000000000000000000000000000000000000000000007bffffffffffffffffffffffffffffffffffffffffffffffffffffffff1916827bffffffffffffffffffffffffffffffffffffffffffffffffffffffff1916148061287657507f5b5e139f000000000000000000000000000000000000000000000000000000007bffffffffffffffffffffffffffffffffffffffffffffffffffffffff1916827bffffffffffffffffffffffffffffffffffffffffffffffffffffffff1916145b80612886575061288582612bf7565b5b9050919050565b60006002600083815260200190815260200160002060009054906101000a900473ffffffffffffffffffffffffffffffffffffffff169050919050565b80806129035750600073ffffffffffffffffffffffffffffffffffffffff168273ffffffffffffffffffffffffffffffffffffffff1614155b15612a3757600061291384611be6565b9050600073ffffffffffffffffffffffffffffffffffffffff168373ffffffffffffffffffffffffffffffffffffffff161415801561297e57508273ffffffffffffffffffffffffffffffffffffffff168173ffffffffffffffffffffffffffffffffffffffff1614155b8015612991575061298f8184611a6b565b155b156129d357826040517fa9fbf51f0000000000000000000000000000000000000000000000000000000081526004016129ca9190613299565b60405180910390fd5b8115612a3557838573ffffffffffffffffffffffffffffffffffffffff168273ffffffffffffffffffffffffffffffffffffffff167f8c5be1e5ebec7d5bd14f71427d1e84f3dd0314c0f7b2291e5b200ac8c7c3b92560405160405180910390a45b505b836004600085815260200190815260200160002060006101000a81548173ffffffffffffffffffffffffffffffffffffffff021916908373ffffffffffffffffffffffffffffffffffffffff16021790555050505050565b612a9a838383612c61565b612b4e57600073ffffffffffffffffffffffffffffffffffffffff168373ffffffffffffffffffffffffffffffffffffffff1603612b0f57806040517f7e273289000000000000000000000000000000000000000000000000000000008152600401612b069190613382565b60405180910390fd5b81816040517f177e802f000000000000000000000000000000000000000000000000000000008152600401612b45929190614583565b60405180910390fd5b505050565b612b5d8383612d22565b612b72612b68611cab565b60008585856124e7565b505050565b606060405180602001604052806000815250905090565b6060612b9982611be6565b506000612ba4612b77565b90506000815111612bc45760405180602001604052806000815250612bef565b80612bce84612e1b565b604051602001612bdf92919061455f565b6040516020818303038152906040525b915050919050565b60007f01ffc9a7000000000000000000000000000000000000000000000000000000007bffffffffffffffffffffffffffffffffffffffffffffffffffffffff1916827bffffffffffffffffffffffffffffffffffffffffffffffffffffffff1916149050919050565b60008073ffffffffffffffffffffffffffffffffffffffff168373ffffffffffffffffffffffffffffffffffffffff1614158015612d1957508273ffffffffffffffffffffffffffffffffffffffff168473ffffffffffffffffffffffffffffffffffffffff161480612cda5750612cd98484611a6b565b5b80612d1857508273ffffffffffffffffffffffffffffffffffffffff16612d0083611c6e565b73ffffffffffffffffffffffffffffffffffffffff16145b5b90509392505050565b600073ffffffffffffffffffffffffffffffffffffffff168273ffffffffffffffffffffffffffffffffffffffff1603612d945760006040517f64a0ae92000000000000000000000000000000000000000000000000000000008152600401612d8b9190613299565b60405180910390fd5b6000612da28383600061201e565b9050600073ffffffffffffffffffffffffffffffffffffffff168173ffffffffffffffffffffffffffffffffffffffff1614612e165760006040517f73c6ac6e000000000000000000000000000000000000000000000000000000008152600401612e0d9190613299565b60405180910390fd5b505050565b606060006001612e2a84612ee9565b01905060008167ffffffffffffffff811115612e4957612e48613593565b5b6040519080825280601f01601f191660200182016040528015612e7b5781602001600182028036833780820191505090505b509050600082602001820190505b600115612ede578080600190039150507f3031323334353637383961626364656600000000000000000000000000000000600a86061a8153600a8581612ed257612ed161432e565b5b04945060008503612e89575b819350505050919050565b600080600090507a184f03e93ff9f4daa797ed6e38ed64bf6a1f0100000000000000008310612f47577a184f03e93ff9f4daa797ed6e38ed64bf6a1f0100000000000000008381612f3d57612f3c61432e565b5b0492506040810190505b6d04ee2d6d415b85acef81000000008310612f84576d04ee2d6d415b85acef81000000008381612f7a57612f7961432e565b5b0492506020810190505b662386f26fc100008310612fb357662386f26fc100008381612fa957612fa861432e565b5b0492506010810190505b6305f5e1008310612fdc576305f5e1008381612fd257612fd161432e565b5b0492506008810190505b6127108310613001576127108381612ff757612ff661432e565b5b0492506004810190505b60648310613024576064838161301a5761301961432e565b5b0492506002810190505b600a8310613033576001810190505b80915050919050565b6040518060c0016040528060008152602001600081526020016000815260200160008152602001600081526020016000151581525090565b6000604051905090565b600080fd5b600080fd5b60007fffffffff0000000000000000000000000000000000000000000000000000000082169050919050565b6130bd81613088565b81146130c857600080fd5b50565b6000813590506130da816130b4565b92915050565b6000602082840312156130f6576130f561307e565b5b6000613104848285016130cb565b91505092915050565b60008115159050919050565b6131228161310d565b82525050565b600060208201905061313d6000830184613119565b92915050565b600081519050919050565b600082825260208201905092915050565b60005b8381101561317d578082015181840152602081019050613162565b60008484015250505050565b6000601f19601f8301169050919050565b60006131a582613143565b6131af818561314e565b93506131bf81856020860161315f565b6131c881613189565b840191505092915050565b600060208201905081810360008301526131ed818461319a565b905092915050565b6000819050919050565b613208816131f5565b811461321357600080fd5b50565b600081359050613225816131ff565b92915050565b6000602082840312156132415761324061307e565b5b600061324f84828501613216565b91505092915050565b600073ffffffffffffffffffffffffffffffffffffffff82169050919050565b600061328382613258565b9050919050565b61329381613278565b82525050565b60006020820190506132ae600083018461328a565b92915050565b6132bd81613278565b81146132c857600080fd5b50565b6000813590506132da816132b4565b92915050565b600080604083850312156132f7576132f661307e565b5b6000613305858286016132cb565b925050602061331685828601613216565b9150509250929050565b6000806000606084860312156133395761333861307e565b5b6000613347868287016132cb565b9350506020613358868287016132cb565b925050604061336986828701613216565b9150509250925092565b61337c816131f5565b82525050565b60006020820190506133976000830184613373565b92915050565b600060e0820190506133b2600083018a613373565b6133bf602083018961328a565b81810360408301526133d1818861319a565b90506133e06060830187613373565b6133ed6080830186613373565b6133fa60a0830185613119565b61340760c0830184613373565b98975050505050505050565b600081519050919050565b600082825260208201905092915050565b6000819050602082019050919050565b613448816131f5565b82525050565b600061345a838361343f565b60208301905092915050565b6000602082019050919050565b600061347e82613413565b613488818561341e565b93506134938361342f565b8060005b838110156134c45781516134ab888261344e565b97506134b683613466565b925050600181019050613497565b5085935050505092915050565b600060208201905081810360008301526134eb8184613473565b905092915050565b6000602082840312156135095761350861307e565b5b6000613517848285016132cb565b91505092915050565b600080604083850312156135375761353661307e565b5b600061354585828601613216565b9250506020613556858286016132cb565b9150509250929050565b60006040820190506135756000830185613373565b6135826020830184613373565b9392505050565b600080fd5b600080fd5b7f4e487b7100000000000000000000000000000000000000000000000000000000600052604160045260246000fd5b6135cb82613189565b810181811067ffffffffffffffff821117156135ea576135e9613593565b5b80604052505050565b60006135fd613074565b905061360982826135c2565b919050565b600067ffffffffffffffff82111561362957613628613593565b5b61363282613189565b9050602081019050919050565b82818337600083830152505050565b600061366161365c8461360e565b6135f3565b90508281526020810184848401111561367d5761367c61358e565b5b61368884828561363f565b509392505050565b600082601f8301126136a5576136a4613589565b5b81356136b584826020860161364e565b91505092915050565b6000602082840312156136d4576136d361307e565b5b600082013567ffffffffffffffff8111156136f2576136f1613083565b5b6136fe84828501613690565b91505092915050565b6137108161310d565b82525050565b60c08201600082015161372c600085018261343f565b50602082015161373f602085018261343f565b506040820151613752604085018261343f565b506060820151613765606085018261343f565b506080820151613778608085018261343f565b5060a082015161378b60a0850182613707565b50505050565b600060c0820190506137a66000830184613716565b92915050565b600060608201905081810360008301526137c68186613473565b905081810360208301526137da8185613473565b905081810360408301526137ee8184613473565b9050949350505050565b600060c08201905061380d6000830189613373565b61381a6020830188613373565b6138276040830187613373565b6138346060830186613373565b6138416080830185613373565b61384e60a0830184613119565b979650505050505050565b6138628161310d565b811461386d57600080fd5b50565b60008135905061387f81613859565b92915050565b6000806040838503121561389c5761389b61307e565b5b60006138aa858286016132cb565b92505060206138bb85828601613870565b9150509250929050565b600067ffffffffffffffff8211156138e0576138df613593565b5b6138e982613189565b9050602081019050919050565b6000613909613904846138c5565b6135f3565b9050828152602081018484840111156139255761392461358e565b5b61393084828561363f565b509392505050565b600082601f83011261394d5761394c613589565b5b813561395d8482602086016138f6565b91505092915050565b600080600080608085870312156139805761397f61307e565b5b600061398e878288016132cb565b945050602061399f878288016132cb565b93505060406139b087828801613216565b925050606085013567ffffffffffffffff8111156139d1576139d0613083565b5b6139dd87828801613938565b91505092959194509250565b60008060408385031215613a00576139ff61307e565b5b6000613a0e858286016132cb565b9250506020613a1f858286016132cb565b9150509250929050565b7f4e487b7100000000000000000000000000000000000000000000000000000000600052602260045260246000fd5b60006002820490506001821680613a7057607f821691505b602082108103613a8357613a82613a29565b5b50919050565b7f436f6e7465737420616c72656164792066696e616c697a656400000000000000600082015250565b6000613abf60198361314e565b9150613aca82613a89565b602082019050919050565b60006020820190508181036000830152613aee81613ab2565b9050919050565b7f436f6e74657374207374696c6c206f6e676f696e670000000000000000000000600082015250565b6000613b2b60158361314e565b9150613b3682613af5565b602082019050919050565b60006020820190508181036000830152613b5a81613b1e565b9050919050565b7f4e6f206d656d657320696e20636f6e7465737400000000000000000000000000600082015250565b6000613b9760138361314e565b9150613ba282613b61565b602082019050919050565b60006020820190508181036000830152613bc681613b8a565b9050919050565b6000606082019050613be2600083018661328a565b613bef6020830185613373565b613bfc604083018461328a565b949350505050565b7f4e487b7100000000000000000000000000000000000000000000000000000000600052601160045260246000fd5b6000613c3e826131f5565b91507fffffffffffffffffffffffffffffffffffffffffffffffffffffffffffffffff8203613c7057613c6f613c04565b5b600182019050919050565b7f4e487b7100000000000000000000000000000000000000000000000000000000600052603260045260246000fd5b7f496e73756666696369656e74207374616b6520616d6f756e7400000000000000600082015250565b6000613ce060198361314e565b9150613ceb82613caa565b602082019050919050565b60006020820190508181036000830152613d0f81613cd3565b9050919050565b7f4d656d6520646f6573206e6f7420657869737400000000000000000000000000600082015250565b6000613d4c60138361314e565b9150613d5782613d16565b602082019050919050565b60006020820190508181036000830152613d7b81613d3f565b9050919050565b7f4d656d65206e6f7420696e2063757272656e7420636f6e746573740000000000600082015250565b6000613db8601b8361314e565b9150613dc382613d82565b602082019050919050565b60006020820190508181036000830152613de781613dab565b9050919050565b7f436f6e746573742069732066696e616c697a6564000000000000000000000000600082015250565b6000613e2460148361314e565b9150613e2f82613dee565b602082019050919050565b60006020820190508181036000830152613e5381613e17565b9050919050565b7f416c7265616479207374616b6564206f6e2074686973206d656d650000000000600082015250565b6000613e90601b8361314e565b9150613e9b82613e5a565b602082019050919050565b60006020820190508181036000830152613ebf81613e83565b9050919050565b6000613ed1826131f5565b9150613edc836131f5565b9250828201905080821115613ef457613ef3613c04565b5b92915050565b7f496e73756666696369656e74207375626d697373696f6e206665650000000000600082015250565b6000613f30601b8361314e565b9150613f3b82613efa565b602082019050919050565b60006020820190508181036000830152613f5f81613f23565b9050919050565b7f49504653204349442063616e6e6f7420626520656d7074790000000000000000600082015250565b6000613f9c60188361314e565b9150613fa782613f66565b602082019050919050565b60006020820190508181036000830152613fcb81613f8f565b9050919050565b7f43757272656e7420636f6e746573742069732066696e616c697a656400000000600082015250565b6000614008601c8361314e565b915061401382613fd2565b602082019050919050565b6000602082019050818103600083015261403781613ffb565b9050919050565b60008190508160005260206000209050919050565b60006020601f8301049050919050565b600082821b905092915050565b6000600883026140a07fffffffffffffffffffffffffffffffffffffffffffffffffffffffffffffffff82614063565b6140aa8683614063565b95508019841693508086168417925050509392505050565b6000819050919050565b60006140e76140e26140dd846131f5565b6140c2565b6131f5565b9050919050565b6000819050919050565b614101836140cc565b61411561410d826140ee565b848454614070565b825550505050565b600090565b61412a61411d565b6141358184846140f8565b505050565b5b818110156141595761414e600082614122565b60018101905061413b565b5050565b601f82111561419e5761416f8161403e565b61417884614053565b81016020851015614187578190505b61419b61419385614053565b83018261413a565b50505b505050565b600082821c905092915050565b60006141c1600019846008026141a3565b1980831691505092915050565b60006141da83836141b0565b9150826002028217905092915050565b6141f382613143565b67ffffffffffffffff81111561420c5761420b613593565b5b6142168254613a58565b61422182828561415d565b600060209050601f8311600181146142545760008415614242578287015190505b61424c85826141ce565b8655506142b4565b601f1984166142628661403e565b60005b8281101561428a57848901518255600182019150602085019450602081019050614265565b868310156142a757848901516142a3601f8916826141b0565b8355505b6001600288020188555050505b505050505050565b600060408201905081810360008301526142d6818561319a565b90506142e56020830184613373565b9392505050565b60006142f7826131f5565b9150614302836131f5565b9250828202614310816131f5565b9150828204841483151761432757614326613c04565b5b5092915050565b7f4e487b7100000000000000000000000000000000000000000000000000000000600052601260045260246000fd5b6000614368826131f5565b9150614373836131f5565b9250826143835761438261432e565b5b828204905092915050565b600081905092915050565b50565b60006143a960008361438e565b91506143b482614399565b600082019050919050565b60006143ca8261439c565b9150819050919050565b7f4661696c656420746f2073656e64207265776172640000000000000000000000600082015250565b600061440a60158361314e565b9150614415826143d4565b602082019050919050565b60006020820190508181036000830152614439816143fd565b9050919050565b600081519050919050565b600082825260208201905092915050565b600061446782614440565b614471818561444b565b935061448181856020860161315f565b61448a81613189565b840191505092915050565b60006080820190506144aa600083018761328a565b6144b7602083018661328a565b6144c46040830185613373565b81810360608301526144d6818461445c565b905095945050505050565b6000815190506144f0816130b4565b92915050565b60006020828403121561450c5761450b61307e565b5b600061451a848285016144e1565b91505092915050565b600081905092915050565b600061453982613143565b6145438185614523565b935061455381856020860161315f565b80840191505092915050565b600061456b828561452e565b9150614577828461452e565b91508190509392505050565b6000604082019050614598600083018561328a565b6145a56020830184613373565b939250505056fea2646970667358221220e42ab3ebc7bf9ca0a2c352a9f209f2ae7c0c47ea8c1583f95ffb0b9c624d37e064736f6c634300081c0033",
  "linkReferences": {},
  "deployedLinkReferences": {}
}